:1000000045C0000058C0000056C0000054C00000A9
:1000100052C0000050C000004EC000004CC00000A4
:100020004AC0000048C0000046C0000044C00000B4
:1000300042C0000040C000003EC000003CC00000C4
:100040003AC0000038C0000036C0000034C00000D4
:1000500032C0000030C000002EC000002CC00000E4
:100060002AC0000028C0000026C0000024C00000F4
:1000700022C0000020C000001EC000001CC0000004
:100080001AC0000018C0000016C0000011241FBED6
:10009000CFEFD0E1DEBFCDBF11E0A0E0B1E0E6E5FB
:1000A000F2E000E00BBF02C007900D92A831B1074B
:1000B000D9F7A9D0CEC0A4CF982F907F946095BBDC
:1000C0009B7F95BB20E18202C0011124846085BB27
:1000D0008B7F85BB85E08A95F1F700000895CF936B
:1000E000C82F85E38A95F1F7000095E39A95F1F71B
:1000F000000085E38A95F1F7000095E39A95F1F702
:10010000000085E38A95F1F700008C2FD5DFC15000
:10011000C23030F48FE39FE10197F1F700C0000097
:10012000CF9108958FEF84BB8FE59AEE0197F1F799
:1001300000C0000080E3C0DF8FE19EE40197F1F78B
:1001400000C0000080E3B8DF8FE99FE00197F1F77E
:1001500000C0000082E3B0DF88E2C1DF88E0BFDFDB
:1001600081E0BDDF86E0BBDF8CE0B9CF25E32A95D7
:10017000F1F7000095E39A95F1F7000025E32A9541
:10018000F1F7000095E39A95F1F7000025E32A9531
:10019000F1F70000982F907F956095BB9B7F95BBF2
:1001A00020E18202C0011124856085BB8B7F85BB65
:1001B0000895CF93DF93EC018991882311F0D6DF66
:1001C000FBCFDF91CF91089590E4899F600D1124BA
:1001D000862F806884CF0F931F93CF93DF938B017B
:1001E00028E08202C0011124806479DFE801085F01
:1001F0001F4F8991BBDFC017D107D9F7DF91CF918E
:100200001F910F910895CF93DF93CDB7DEB7649719
:100210000FB6F894DEBF0FBECDBF84DF60E171E0A2
:1002200080E0D9DF68E071E081E0D5DF60E071E077
:1002300082E0D1DF88E0898391E09A8392E09B831A
:100240008C831D8262E081E0BFDFCE010196B1DFC9
:06025000FFCFF894FFCF80
:100256001A1A0A1B1B0A0A0A03031B1F1F1B030386
:08026600040E150404150E043A
:00000001FF
