:1000000045C0000060C000005EC000005CC0000091
:100010005AC0000058C0000056C0000054C0000084
:1000200052C0000050C000004EC000004CC0000094
:100030004AC0000048C0000046C00000C2C0000026
:1000400042C0000040C000003EC000003CC00000B4
:100050003AC0000038C0000036C0000034C00000C4
:1000600032C0000030C000002EC000002CC00000D4
:100070002AC0000028C0000026C0000024C00000E4
:1000800022C0000020C000001EC0000011241FBEBE
:10009000CFEFD0E1DEBFCDBF11E0A0E0B1E0E4ECF6
:1000A000F2E000E00BBF02C007900D92A631B1074D
:1000B000D9F721E0A6E1B1E001C01D92AA31B20753
:1000C000E1F7C5D0FDC09CCF81B3887F81BB089587
:1000D000FC0120B32095277001C0292F83EC99E003
:1000E0000197F1F700C0000083EC99E00197F1F768
:1000F00000C0000083EC99E00197F1F700C0000018
:1001000090B3909597702913E8CF108280911701D2
:10011000981326C0809116018F5F8093160181315C
:1001200028F1833478F082E08083E3ECF9E03197C2
:10013000F1F700C00000E3ECF9E03197F1F700C0FF
:10014000000010C081E0808327E030E0E3ECF9E0BC
:100150003197F1F700C0000021503109B9F702C012
:100160001092160190931701892F089580E0089549
:1001700082B3806F82BB81B3806F81BB8FEF8ABBFC
:1001800088E083BF8EE481BF87B7826087BF83B773
:10019000876083BF08959B0147B74D7F47BFE0E06D
:1001A000F1E040E14183428343834483B90174D049
:1001B0008193862F972F0097C9F787B7826087BFF3
:1001C00008951F920F920FB60F9211240BB60F9243
:1001D0002F938F939F93EF93FF9322B380E190E04F
:1001E0000090180102C0880F991F0A94E2F78095C9
:1001F000807F922F9F70892B82BBE0911801F09134
:100200001901E050FF4FE081F0E0EB5FFE4F80818D
:1002100080958BBB809118019091190101968430D3
:10022000910529F0909319018093180104C0109250
:10023000190110921801FF91EF919F918F912F91C9
:100240000F900BBE0F900FBE0F901F901895CF937D
:10025000DF931F92CDB7DEB78BDF36DF78946AE08D
:1002600070E080E090E097DF00E010E0CE010196C2
:100270002FDF823039F0843041F0813041F40F5F5C
:100280001F4F05C00E5F1F4F02C00D5F1F4F6AE07A
:1002900070E0C80180DFEACFAA1BBB1B51E107C099
:1002A000AA1FBB1FA617B70710F0A61BB70B881F06
:1002B000991F5A95A9F780959095BC01CD01089595
:0402C000F894FFCFE0
:1002C40010101010103F065B4F666D7D077F6F772F
:0602D4007C585E79710008
:00000001FF
