S0140000686F6D65776F726B5F6368372E7372656343
S113000045C0000058C0000056C0000054C00000A5
S113001052C0000050C000004EC000004CC00000A0
S11300204AC0000048C0000046C0000044C00000B0
S113003042C0000040C000003EC000003CC00000C0
S11300403AC0000038C0000036C0000034C00000D0
S113005032C0000030C000002EC000002CC00000E0
S11300602AC0000028C0000026C0000024C00000F0
S113007022C0000020C000001EC000001CC0000000
S11300801AC0000018C0000016C0000011241FBED2
S1130090CFEFD0E1DEBFCDBF11E0A0E0B1E0E2E8F8
S11300A0F1E000E00BBF02C007900D92A631B1074A
S11300B0D9F702D064C0A4CF06D06AE070E08DEC1A
S11300C090E00AD0FACF82B3806F82BB81B3806F95
S11300D081BB8FEF87BB08950F931F93CF93DF935B
S11300E08B0120E12093010120930201209303015D
S11300F020930401C0E0D1E0FE01B8012CD081932B
S1130100CB010097D1F740E050E060E170E092B39A
S11301109B01042E01C0220F0A94EAF7822F8095D6
S1130120807F9F70892B82BBE991F0E0EB5FFE4FEB
S11301308081809588BB8FE19EE40197F1F700C030
S113014000004F5F5F4F4430510509F7DF91CF91B5
S11301501F910F910895AA1BBB1B51E107C0AA1F51
S1130160BB1FA617B70710F0A61BB70B881F991F54
S11301705A95A9F780959095BC01CD010895F894FE
S1050180FFCFAB
S113018210000000003F065B4F666D7D077F6F77AE
S10901927C585E79710047
S9030000FC
