:1000000045C0000060C000005EC000005CC0000091
:100010005AC0000058C0000056C0000054C0000084
:1000200052C0000050C000004EC000004CC0000094
:100030004AC0000048C0000046C0000044C00000A4
:1000400042C0000040C000003EC000003CC00000B4
:100050003AC0000038C0000036C0000034C00000C4
:1000600032C0000030C000002EC000002CC00000D4
:100070002AC0000028C0000026C0000024C00000E4
:1000800022C0000020C000001EC0000011241FBEBE
:10009000CFEFD0E1DEBFCDBF11E0A0E0B1E0E2E9FB
:1000A000F1E000E00BBF02C007900D92A631B1074E
:1000B000D9F721E0A6E1B1E001C01D92A631B20757
:1000C000E1F74AD064C09CCF88B38F6088BB87B308
:1000D0008F6087BB8FEF82B908950F931F93CF93E3
:1000E000DF938B0120E120930101209302012093F3
:1000F000030120930401C0E0D1E0FE01B80133D038
:100100008193CB010097D1F740E050E061E070E0CF
:1001100098B39B01042E01C0220F0A94EAF7822FA4
:1001200080958F70907F892B88BBE991F0E0EB5F21
:10013000FE4F8081809583B98FE19EE40197F1F7AE
:1001400000C000004F5F5F4F4430510509F7DF9159
:10015000CF911F910F910895B7DF6AE070E08DECA9
:1001600090E0BBDFFACFAA1BBB1B51E107C0AA1F5F
:10017000BB1FA617B70710F0A61BB70B881F991F48
:100180005A95A9F780959095BC01CD010895F894F2
:02019000FFCF9F
:1001920010000000003F065B4F666D7D077F6F77A2
:0601A2007C585E7971003B
:00000001FF
