:1000000045C0000060C000005EC000005CC0000091
:100010005AC0000058C0000056C0000054C0000084
:1000200052C0000050C000004EC000004CC0000094
:100030004AC0000048C0000046C000009EC000004A
:1000400042C0000040C000003EC000003CC00000B4
:100050003AC0000038C0000036C0000034C00000C4
:1000600032C0000030C000002EC000002CC00000D4
:100070002AC0000028C0000026C0000024C00000E4
:1000800022C0000020C000001EC0000011241FBEBE
:10009000CFEFD0E1DEBFCDBF11E0A0E0B1E0E8E6F8
:1000A000F2E000E00BBF02C007900D92A631B1074D
:1000B000D9F721E0A6E1B1E001C01D92A931B20754
:1000C000E1F7A1D0CFC09CCF81B3887F81BB0895D9
:1000D00080B380958770EFE3FCE93197F1F700C0BA
:1000E0000000EFE3FCE93197F1F700C00000EFE317
:1000F000FCE93197F1F700C0000090B3909597703C
:10010000891711F0892FE7CF90911601891719F0FF
:1001100080931601089580E0089582B3806F82BBBA
:1001200081B3806F81BB8FEF8ABB88E083BF8EE491
:1001300081BF87B7826087BF83B7876083BF089519
:10014000CF93DF93EB0127B72D7F27BF20E12093CB
:100150000101209302012093030120930401E0E0B8
:10016000F1E0BE016BD08193CB010097D1F787B747
:10017000826087BFDF91CF9108951F920F920FB6D3
:100180000F9211240BB60F922F938F939F93EF939F
:10019000FF9322B380E190E00090170102C0880F26
:1001A000991F0A94E2F78095807F922F9F70892B88
:1001B00082BBE0911701F0911801E050FF4FE08100
:1001C000F0E0EB5FFE4F808180958BBB8091170143
:1001D0009091180101968430910529F090931801AF
:1001E0008093170104C01092180110921701FF911B
:1001F000EF919F918F912F910F900BBE0F900FBE9B
:100200000F901F90189589DF5FDF78946AE070E0A7
:1002100080E090E095DFC0E0D0E05ADF823031F03E
:10022000843031F0813029F4219603C0229601C038
:1002300023966AE070E0CE0183DFEFCFAA1BBB1BE1
:1002400051E107C0AA1FBB1FA617B70710F0A61BD6
:10025000B70B881F991F5A95A9F780959095BC01F7
:08026000CD010895F894FFCFD1
:1002680010101010103F065B4F666D7D077F6F778B
:060278007C585E79710064
:00000001FF
