S010000070757368335F68312E7372656329
S113000045C0000060C000005EC000005CC000008D
S11300105AC0000058C0000056C0000054C0000080
S113002052C0000050C000004EC000004CC0000090
S11300304AC0000048C0000046C000006EC0000076
S113004042C0000040C000003EC000003CC00000B0
S11300503AC0000038C0000036C0000034C00000C0
S113006032C0000030C000002EC000002CC00000D0
S11300702AC0000028C0000026C0000024C00000E0
S113008022C0000020C000001EC0000011241FBEBA
S1130090CFEFD0E1DEBFCDBF11E0A0E0B1E0E4EAF4
S11300A0F2E000E00BBF02C007900D92A631B10749
S11300B0D9F721E0A6E1B1E001C01D92A931B20750
S11300C0E1F7C0D0EDC09CCF82B3806F82BB81B317
S11300D0806F81BB8FEF8ABB88E083BF8EE481BFD2
S11300E087B7826087BF83B7876083BF08959B010A
S11300F047B74D7F47BFE0E0F1E040E141834283F1
S113010043834483B901B8D08193862F972F0097F6
S1130110C9F787B7826087BF08951F920F920FB601
S11301200F9211240BB60F922F938F939F93EF93FB
S1130130FF9322B380E190E00090160102C0880F83
S1130140991F0A94E2F78095807F922F9F70892BE4
S113015082BBE0911601F0911701E050FF4FE0815E
S1130160F0E0EB5FFE4F808180958BBB80911601A0
S11301709091170101968430910529F0909317010D
S11301808093160104C01092170110921601FF917A
S1130190EF919F918F912F910F900BBE0F900FBEF7
S11301A00F901F9018958EEF80936200000080B12D
S11301B08095807F69F423E092E0E2E6F0E0892F05
S11301C080958083000080B18095807F21F001C0FC
S11301D091E0890F0895990F215089F7089580EFD0
S11301E0809362008FE0809361000895CF93DBDFFA
S11301F0C82F01C0C82F83EC99E00197F1F700C024
S1130200000083EC99E00197F1F700C0000083EC53
S113021099E00197F1F700C00000C5DFC813EACFE9
S1130220982F907F19F41092180109C09091180129
S1130230891721F080931801982F01C090E0892F2D
S1130240CF91089541DFCBDF78946AE070E080E0DD
S113025090E04DDFC0E0CADF823131F0843119F023
S1130260813121F402C0CF5FCE5FCD5F6AE070E0E0
S11302708C2F90E03CDFEFCFAA1BBB1B51E107C0E2
S1130280AA1FBB1FA617B70710F0A61BB70B881F22
S1130290991F5A95A9F780959095BC01CD010895B1
S10702A0F894FFCFFC
S11302A410101010103F065B4F666D7D077F6F774B
S10902B47C585E79710024
S9030000FC
