S010000070757368335F68312E7372656329
S113000045C0000060C000005EC000005CC000008D
S11300105AC0000058C0000056C0000054C0000080
S113002052C0000050C000004EC000004CC0000090
S11300304AC0000048C0000046C0000075C000006F
S113004042C0000040C000003EC000003CC00000B0
S11300503AC0000038C0000036C0000034C00000C0
S113006032C0000030C000002EC000002CC00000D0
S11300702AC0000028C0000026C0000024C00000E0
S113008022C0000020C000001EC0000011241FBEBA
S1130090CFEFD0E1DEBFCDBF11E0A0E0B1E0E8E9F1
S11300A0F2E000E00BBF02C007900D92A631B10749
S11300B0D9F721E0A6E1B1E001C01D92A931B20750
S11300C0E1F7B9D0E7C09CCF82B3806F82BB81B324
S11300D0806F81BB8FEF8ABB88E083BF8EE481BFD2
S11300E087B7826087BF83B7876083BF0895CF9344
S11300F0DF93EB0127B72D7F27BF20E12093010178
S1130100209302012093030120930401E0E0F1E035
S1130110BE01ACD08193CB010097D1F787B7826041
S113012087BFDF91CF9108951F920F920FB60F9260
S113013011240BB60F922F938F939F93EF93FF93FA
S113014022B380E190E00090160102C0880F991F4D
S11301500A94E2F78095807F922F9F70892B82BB4F
S1130160E0911601F0911701E050FF4FE081F0E0BB
S1130170EB5FFE4F808180958BBB8091160190913F
S1130180170101968430910529F09093170180930B
S1130190160104C01092170110921601FF91EF91FD
S11301A09F918F912F910F900BBE0F900FBE0F90C8
S11301B01F90189524E091E0892F80958093620028
S11301C0000080B18095807F11F0890F0895990F08
S11301D0215091F7089580EF809362008FE080931F
S11301E061000895CF93E6DFC82F8FE39CE9019760
S11301F0F1F700C000008FE39CE90197F1F700C01C
S113020000008FE39CE90197F1F700C00000D2DF02
S1130210C813EACF8C2F807F19F41092180109C0FB
S113022080911801C81721F0C09318018C2F01C0C8
S113023080E0CF91089548DFCEDF78946AE070E0E3
S113024080E090E054DFC0E0D0E0CCDF823141F0C8
S1130250843121F0813129F4239603C0219601C011
S113026022966AE070E0CE0142DFEFCFAA1BBB1BEF
S113027051E107C0AA1FBB1FA617B70710F0A61BA2
S1130280B70B881F991F5A95A9F780959095BC01C3
S10B0290CD010895F894FFCF9D
S113029810101010103F065B4F666D7D077F6F7757
S10902A87C585E79710030
S9030000FC
