S01400005465726D5F70726F6A6563742E7372656322
S113000045C0000060C000005EC000005CC000008D
S11300105AC0000058C0000056C0000054C0000080
S113002052C0000050C0000063C100004CC000007A
S11300304AC0000048C0000046C0000044C00000A0
S113004042C0000040C000003EC000003CC00000B0
S11300503AC0000038C0000036C0000034C00000C0
S113006032C0000030C000002EC000002CC00000D0
S11300702AC0000028C0000026C0000024C00000E0
S113008022C0000020C000001EC0000011241FBEBA
S1130090CFEFD0E1DEBFCDBF11E0A0E0B1E0E6EAF2
S11300A0FDE000E00BBF02C007900D92A036B1073F
S11300B0D9F721E0A0E6B1E001C01D92A039B20752
S11300C0E1F761D26EC69CCF24E091E0892F809540
S11300D080936200000080B18095807F11F0890FC9
S11300E00895990F215091F7089580EF809362004D
S11300F08FE0809361000895CF93E6DFC82F8FE3EC
S11301009CE90197F1F700C000008FE39CE9019797
S1130110F1F700C000008FE39CE90197F1F700C0FC
S11301200000D2DFC813EACF8C2F807F19F410921D
S1130130610109C080916101C81721F0C093610178
S11301408C2F01C080E0CF910895CF93BDDFC82FDD
S11301508FE39CE90197F1F700C00000EFE3FCE9AD
S11301603197F1F700C000008FE39CE90197F1F7A4
S113017000C00000A9DFC813EACF9091600189177D
S113018021F080936001CF91089527E030E0EFE300
S1130190FCE93197F1F700C0000021503109B9F7AB
S11301A0F0CF982F907F946095BB9B7F95BB20E107
S11301B08202C0011124846085BB8B7F85BB85E0EE
S11301C08A95F1F700000895CF93C82F85E38A95A7
S11301D0F1F7000095E39A95F1F7000085E38A951D
S11301E0F1F7000095E39A95F1F7000085E38A950D
S11301F0F1F700008C2FD5DFC150C23030F48FE30B
S11302009FE10197F1F700C00000CF9108958FEFAF
S113021084BB8FE59AEE0197F1F700C0000080E3FC
S1130220C0DF8FE19EE40197F1F700C0000080E396
S1130230B8DF8FE99FE00197F1F700C0000082E387
S1130240B0DF88E2C1DF88E0BFDF81E0BDDF86E0A8
S1130250BBDF8CE0B9CF25E32A95F1F7000095E3E5
S11302609A95F1F7000025E32A95F1F7000095E34C
S11302709A95F1F7000025E32A95F1F70000982FED
S1130280907F956095BB9B7F95BB20E18202C00166
S11302901124856085BB8B7F85BB0895CF93DF9345
S11302A0EC018991882311F0D6DFFBCFDF91CF9148
S11302B0089590E4899F600D1124862F806884CF6F
S11302C00F931F93CF93DF938B0128E08202C00129
S11302D01124806479DFE801085F1F4F8991BBDF37
S11302E0C017D107D9F7DF91CF911F910F910895CE
S11302F01F920F920FB60F9211240BB60F922F93E9
S11303003F934F935F936F937F938F939F93AF9399
S1130310BF93EF93FF9380916C0190916D01892BB2
S113032009F4AEC028B381E090E000906A0102C0F5
S1130330880F991F0A94E2F780958F70922F907F0F
S1130340892B88BBE0916A01F0916B01E75BFE4F5A
S1130350E081F0E0E25BFE4F8081809583B980917B
S11303606A0190916B0101968430910529F0909374
S11303706B0180936A0104C010926B0110926A01B0
S1130380809168019091690101968830910529F066
S1130390909369018093680104C0109269011092DE
S11303A0680181E090E00090680102C0880F991F05
S11303B00A94E2F782BB809166019091670123E081
S11303C0880F991F2A95E1F7875D9E4F2091680158
S11303D030916901FC01E20FF31F80818BBB809196
S11303E06401909165010196883E23E0920729F00B
S11303F090936501809364014EC010926501109240
S113040064018091660190916701019684309105A1
S113041029F0909367018093660104C010926701EC
S1130420109266018091700190917101892B99F16C
S11304308091620190916301892B91F088B3806669
S113044088BB66E080E035DF80E205DF69E080E0BC
S113045030DF80E200DF10926301109262011BC062
S113046088B38F7988BB66E080E023DF84E791E07E
S113047015DF81E090E090936301809362010BC0EB
S1130480109269011092680110926701109266013E
S11304908FEF8BBB83B986E084BDFF91EF91BF9151
S11304A0AF919F918F917F916F915F914F913F9108
S11304B02F910F900BBE0F900FBE0F901F901895A9
S11304C01816190644F4EFE9FFE03197F1F700C07C
S11304D000000197F5CF0895CF93DF93EB0127B781
S11304E02F7B27BF20E120934A0120934B012093C7
S11304F04C0120934D01E9E4F1E0BE012BD481933A
S1130500CB010097D1F787B7806487BFDF91CF9184
S113051008950F931F93CF93DF9397FD0196EC01FA
S1130520D595C795C830D10514F4C0E0D0E06AE091
S113053070E086E4282F2C9FC0012D9F900D11247C
S1130540CBDFECE7F1E020E030E00AE010E0CE01A0
S1130550B80114D4805D8293EB01209761F4EBE73A
S1130560F1E0E21BF30B89E791E020E38E179F078C
S113057029F02293FBCF2F5F3F4FE9CFDF91CF913B
S11305801F910F9108958FEF88BB12BA1BBA83B9DC
S113059087BB8ABB81BB82B9C8E6C3BF83B782600D
S11305A083BF15BC85B5836085BD80E487BF86E0C5
S11305B084BD78949ADD2BDE61E271E080E080DE18
S11305C069E171E081E07CDE61E171E082E078DE86
S11305D069E071E083E074DE61E071E084E070DE84
S11305E098E090938B0181E080938C0180E280936A
S11305F08D0122E020938E0110928F0190937D0152
S113060093E090937E0194E090937F018093800126
S11306109FE69093810196E69093820190938301E3
S1130620109284019FE790937401809375018093E5
S113063076019EE79093770110927801809385016B
S11306408BE6809386018DE6809387018FE2809309
S11306508801C093890110928A0180E38093790113
S113066080937A0180937B0110927C0100E010E07A
S1130670A12CB12CC0E0D0E0612C712CE12CF12C28
S1130680CC24C394D12C6FE0262E7AE0372EE5E0FB
S11306905E2EF0EF4F2E30DD8232C9F038F4813116
S11306A089F08132B9F4C1E0D0E014C0883231F06D
S11306B0813481F4AA24A394B12C0CC066246394DD
S11306C0712C08C0109273011092720103C0EE24C1
S11306D0E394F12C3ADD843119F0843471F019C0BB
S11306E0809100018B5F80930001809100018B3F1A
S11306F0F0F08AEF809300011AC0809100018A50C3
S113070080930001809100018A3078F430920001D6
S11307100CC0809100018150809300018091000100
S11307208F3028F42092000102C001E010E0809193
S11307306C0190916D01019709F03BC080917201A9
S113074090917301892B09F034C010926D011092BD
S11307506C01509200018091000181BF48BA12BA25
S11307601BBA109271011092700110926F011092D5
S11307706E0181E029DD65E080E09BDD8DE791E09D
S11307808DDD93E0892E912C88EE93E099DE88E04C
S11307901BDD88EE93E094DE8CE016DD81E0881AA0
S11307A0910891F788EE93E08BDE81E00DDD88E01F
S11307B00BDD80916C0190916D01892B61F5809125
S11307C0720190917301019731F566E080E071DD6B
S11307D08BE891E063DD83E0882E912C88EE93E032
S11307E06FDE88E0F1DC88EE93E06ADE8CE0ECDC1E
S11307F081E0881A910891F788EE93E061DE81E048
S1130800E3DC67E081E055DD85E891E047DDD092E7
S11308106D01C0926C0180916C0190916D01892BE6
S113082009F462C18091000181BF8091000190E0D0
S113083070DE64E081E03DDD89E791E02FDDAB28E7
S1130840D1F080916E0190916F01892B51F0C79A7C
S113085010926F0110926E016FE080E02ADD80E259
S113086009C0C798D0926F01C0926E016FE080E01A
S113087020DD86EDF0DC012B69F0109271011092FD
S1130880700166E080E015DD84E791E007DD88B360
S11308908F7913C08091700190917101892B09F0B7
S11308A038C166E080E005DD80E2D5DC69E080E007
S11308B000DD80E2D0DC88B3806688BBCD2BE1F01C
S11308C08091700190917101892B91F010927101C6
S11308D01092700166E080E0ECDC80E2BCDC69E050
S11308E080E0E7DC80E2B7DC88B3806688BB04C0C4
S11308F0D0927101C0927001EF2809F470C0109277
S113090071011092700166E080E0D3DC80E2A3DC28
S113091069E080E0CEDC80E29EDCC69A10910001A2
S11309206091000170E080E090E025D12DEC3CEC7A
S11309304CE45FE384D1F1D0062FC62FD72F8091EA
S1130940000190E08C179D07B0F08091000181BFF9
S11309508091000190E0DDDD64E081E0AADC89E7BC
S113096091E09CDC84E190E0ABDD8091000181505A
S113097080930001E4CF00930001C5E0D0E069E07A
S113098080E097DC8EE767DCC69888EE93E098DD1C
S113099069E080E08EDC80E25EDCC69A88EE93E05B
S11309A08FDD219761F7809100011817B0F08091D5
S11309B0000181BF8091000190E0ABDD64E081E043
S11309C078DC89E791E06ADC84E190E079DD80916C
S11309D000018F5F80930001E6CF10930001611442
S11309E0710409F479C0109271011092700166E0EB
S11309F080E05FDC80E22FDC69E080E05ADC80E2AA
S1130A002ADCC59A109100016091000170E080E039
S1130A1090E0B1D02DEC3CEC4CE45FE310D17DD000
S1130A20062FC62FD72F8091000190E08C179D07C9
S1130A30B0F08091000181BF8091000190E069DDF8
S1130A4064E081E036DC89E791E028DC84E190E031
S1130A5037DD80910001815080930001E4CF009341
S1130A600001C5E0D0E066E080E023DC8FE7F3DB43
S1130A70C59888EE93E024DD66E080E01ADC80E22D
S1130A80EADBC59A88EE93E01BDD219761F780913C
S1130A9000011817B0F08091000181BF809100011E
S1130AA090E037DD64E081E004DC89E791E0F6DB87
S1130AB084E190E005DD809100018F5F8093000167
S1130AC0E6CF1093000100E010E0A12CB12CC0E0AF
S1130AD0D0E0612C712C06C000E010E0A12CB12CF8
S1130AE0C0E0D0E0E12CF12C80916C0190916D017B
S1130AF0892B09F0D0CD00DB813121F4D092730130
S1130B00C09272018091720190917301892B61F3FB
S1130B10C2CDCD2B09F4F0CED9CE70D088F09F573A
S1130B2090F0B92F9927B751A0F0D1F0660F771F35
S1130B30881F991F1AF0BA95C9F712C0B13081F015
S1130B4077D0B1E0089574C0672F782F8827B85FF5
S1130B5039F0B93FCCF3869577956795B395D9F776
S1130B603EF490958095709561957F4F8F4F9F4F80
S1130B700895E89409C097FB3EF49095809570958C
S1130B8061957F4F8F4F9F4F9923A9F0F92F96E9D5
S1130B90BB279395F695879577956795B795F1114A
S1130BA0F8CFFAF4BB0F11F460FF1BC06F5F7F4FE7
S1130BB08F4F9F4F16C0882311F096E911C07723F9
S1130BC021F09EE8872F762F05C0662371F096E802
S1130BD0862F70E060E02AF09A95660F771F881FD1
S1130BE0DAF7880F9695879597F9089557FD9058E9
S1130BF0440F551F59F05F3F71F04795880F97FBDD
S1130C00991F61F09F3F79F0879508951216130696
S1130C101406551FF2CF4695F1DF08C016161706C5
S1130C201806991FF1CF86957105610508940895FA
S1130C30E894BB2766277727CB0197F908950BD053
S1130C4078C069D028F06ED018F0952309F05AC006
S1130C505FC01124EECFCADFA0F3959FD1F3950FA7
S1130C6050E0551F629FF001729FBB27F00DB11D2C
S1130C70639FAA27F00DB11DAA1F649F6627B00DBC
S1130C80A11D661F829F2227B00DA11D621F739FA5
S1130C90B00DA11D621F839FA00D611D221F749FB3
S1130CA03327A00D611D231F849F600D211D822FFA
S1130CB0762F6A2F11249F5750408AF0E1F0882341
S1130CC04AF0EE0FFF1FBB1F661F771F881F91504E
S1130CD05040A9F79E3F510570F014C0AACF5F3F62
S1130CE0ECF3983EDCF3869577956795B795F79581
S1130CF0E7959F5FC1F7FE2B880F911D9695879509
S1130D0097F9089597F99F6780E870E060E0089587
S1130D109FEF80EC089500240A941616170618060F
S1130D200906089500240A941216130614060506EB
S1130D300895092E0394000C11F4882352F0BB0F7C
S1130D4040F4BF2B11F460FF04C06F5F7F4F8F4FDF
S1130D509F4F0895AA1BBB1B51E107C0AA1FBB1FCD
S1130D60A617B70710F0A61BB70B881F991F5A9533
S1130D70A9F780959095BC01CD01089597FB072EA6
S1130D8016F4009406D077FD08D0E4DF07FC05D004
S1130D903EF4909581959F4F0895709561957F4F8E
S1090DA00895F894FFCF52
S1130DA6051B131F131B001F1F04040A0A1111003D
S1130DB61F0E040A1F04040A041F101F041F040A3A
S1130DC6040101091515150101E700DBBD7EE7E7FE
S1130DD6007E7E007E00E7E700E7DBE7FF00E77FB3
S1130DE60006DEA876FE7F7F0010101010103F0666
S1130DF65B4F666D7D077F6F777C585E7971000067
S9030000FC
