:1000000045C0000060C000005EC000005CC0000091
:100010005AC0000058C0000056C0000054C0000084
:1000200052C0000050C000004EC000004CC0000094
:100030004AC0000048C0000046C00000A0C0000048
:1000400042C0000040C000003EC000003CC00000B4
:100050003AC0000038C0000036C0000034C00000C4
:1000600032C0000030C000002EC000002CC00000D4
:100070002AC0000028C0000026C0000024C00000E4
:1000800022C0000020C000001EC0000011241FBEBE
:10009000CFEFD0E1DEBFCDBF11E0A0E0B1E0E2ECF8
:1000A000F2E000E00BBF02C007900D92A232B10750
:1000B000D9F721E0A2E2B1E001C01D92A632B20759
:1000C000E1F7C1D0FCC09CCF82B3806F82BB81B30B
:1000D000806F81BB8FEF8ABB88E083BF8EE481BFD6
:1000E00087B7826087BF83B7876083BF0895CF9348
:1000F000DF93EB0127B72D7F27BF20E12093060177
:10010000209307012093080120930901E5E0F1E025
:10011000BE01C1D08193CB010097D1F787B7826030
:1001200087BFDF91CF91089527B72D7F27BF20E1AB
:1001300020930101209302012093030120930401E5
:10014000DC01E0E0F1E080E19D912FEB290F26300A
:1001500010F4975305C02FE9290F263018F497554E
:10016000908304C090539A30D8F38083319691E005
:10017000E430F90749F787B7826087BF08951F9277
:100180000F920FB60F9211240BB60F922F933F933D
:100190008F939F93EF93FF9322B380E190E00090C1
:1001A000220102C0880F991F0A94E2F78095807F90
:1001B000922F9F70892B82BB2091240130912501C1
:1001C00080912201909123012115310521F4FC0138
:1001D000EB5FFE4F07C02130310559F4E3E0F1E059
:1001E000E81BF90BE081F0E0E65FFE4F808180952F
:1001F0008BBB80912201909123010196843091055F
:1002000029F0909323018093220104C010922301CE
:1002100010922201FF91EF919F918F913F912F9129
:100220000F900BBE0F900FBE0F901F9018951816D1
:10023000190644F4EFE9FFE03197F1F700C0000040
:100240000197F5CF089540DF789481E090E0909396
:10025000250180932401C1E0D0E080912401909198
:1002600025018130910551F46AE070E08BE790E060
:100270003EDF109225011092240109C0892B39F428
:100280008BE191E051DFD0932501C093240188EEEA
:1002900093E0CDDFE2CFAA1BBB1B51E107C0AA1F31
:1002A000BB1FA617B70710F0A61BB70B881F991F17
:1002B0005A95A9F780959095BC01CD010895F894C1
:0202C000FFCF6E
:1002C200100000000010101010103F065B4F666D0A
:1002D2007D077F6F777C585E7971004361233032EE
:0202E2003300E7
:00000001FF
