:1000000045C0000060C000005EC000005CC0000091
:100010005AC0000058C0000056C0000054C0000084
:1000200052C0000050C0000095C000004CC000004D
:100030004AC0000048C0000046C0000045C00000A3
:1000400042C0000040C000003EC000003CC00000B4
:100050003AC0000038C0000036C0000034C00000C4
:1000600032C0000030C000002EC000002CC00000D4
:100070002AC0000028C0000026C0000024C00000E4
:1000800022C0000020C000001EC0000011241FBEBE
:10009000CFEFD0E1DEBFCDBF11E0A0E0B1E0E6EFF1
:1000A000F1E000E00BBF02C007900D92AE31B10746
:1000B000D9F721E0AEE1B1E001C01D92A332B20751
:1000C000E1F788D096C09CCF1F920F920FB60F9287
:1000D00011240BB60F922F938F939F93EF93FF935F
:1000E00022B380E190E000901E0102C0880F991FAA
:1000F0000A94E2F78095807F922F9F70892B82BBB4
:10010000E0911E01F0911F01E050FF4FE081F0E00F
:10011000EB5FFE4F808180958BBB80911E0190919B
:100120001F0101968430910529F090931F0180935F
:100130001E0104C010921F0110921E01FF91EF9149
:100140009F918F912F910F900BBE0F900FBE0F902C
:100150001F9018951F920F920FB60F9211240BB695
:100160000F922F933F938F939F93EF93FF9384E688
:1001700082BF809122018F5F843119F08093220128
:100180001CC01092220180912001909121019C01BC
:100190002F5F3F4F3093210120932001FC01EA5E45
:1001A000FE4F80818BBB80912001909121010897A7
:1001B00021F41092210110922001FF91EF919F9163
:1001C0008F913F912F910F900BBE0F900FBE0F900C
:1001D0001F9018958FEF8ABB8BBB81BB82BB15BC70
:1001E00084E684BD80E487BF789485B5856085BD4D
:0601F000FFCFF894FFCFE1
:1001F60010101010103F065B4F666D7D077F6F77FE
:0E0206007C585E797100FEFDFBF7EFDFBF7FD5
:00000001FF
